{
  "contractName": "Files",
  "abi": [
    {
      "inputs": [
        {
          "internalType": "address",
          "name": "",
          "type": "address"
        },
        {
          "internalType": "uint256",
          "name": "",
          "type": "uint256"
        }
      ],
      "name": "files",
      "outputs": [
        {
          "internalType": "string",
          "name": "file_name",
          "type": "string"
        },
        {
          "internalType": "string",
          "name": "ipfs_cid",
          "type": "string"
        }
      ],
      "stateMutability": "view",
      "type": "function"
    },
    {
      "inputs": [
        {
          "internalType": "string",
          "name": "_file_name",
          "type": "string"
        },
        {
          "internalType": "string",
          "name": "_ipfs_cid",
          "type": "string"
        }
      ],
      "name": "addFile",
      "outputs": [],
      "stateMutability": "nonpayable",
      "type": "function"
    },
    {
      "inputs": [
        {
          "internalType": "address",
          "name": "fileOwner",
          "type": "address"
        }
      ],
      "name": "getFilesLength",
      "outputs": [
        {
          "internalType": "uint256",
          "name": "count",
          "type": "uint256"
        }
      ],
      "stateMutability": "view",
      "type": "function"
    }
  ],
  "bytecode": "0x608060405234801561001057600080fd5b506107e7806100206000396000f3fe608060405234801561001057600080fd5b50600436106100415760003560e01c8063248bfc3b146100465780632ba6978e14610062578063a045718b14610093575b600080fd5b610060600480360381019061005b91906104bb565b6100c3565b005b61007c6004803603810190610077919061047f565b610185565b60405161008a92919061056f565b60405180910390f35b6100ad60048036038101906100a89190610456565b6102d6565b6040516100ba91906105a6565b60405180910390f35b600060405180604001604052808481526020018381525090506000803373ffffffffffffffffffffffffffffffffffffffff1673ffffffffffffffffffffffffffffffffffffffff1681526020019081526020016000208190806001815401808255809150506001900390600052602060002090600202016000909190919091506000820151816000019080519060200190610160929190610321565b50602082015181600101908051906020019061017d929190610321565b505050505050565b600060205281600052604060002081815481106101a157600080fd5b9060005260206000209060020201600091509150508060000180546101c5906106b1565b80601f01602080910402602001604051908101604052809291908181526020018280546101f1906106b1565b801561023e5780601f106102135761010080835404028352916020019161023e565b820191906000526020600020905b81548152906001019060200180831161022157829003601f168201915b505050505090806001018054610253906106b1565b80601f016020809104026020016040519081016040528092919081815260200182805461027f906106b1565b80156102cc5780601f106102a1576101008083540402835291602001916102cc565b820191906000526020600020905b8154815290600101906020018083116102af57829003601f168201915b5050505050905082565b60008060008373ffffffffffffffffffffffffffffffffffffffff1673ffffffffffffffffffffffffffffffffffffffff168152602001908152602001600020805490509050919050565b82805461032d906106b1565b90600052602060002090601f01602090048101928261034f5760008555610396565b82601f1061036857805160ff1916838001178555610396565b82800160010185558215610396579182015b8281111561039557825182559160200191906001019061037a565b5b5090506103a391906103a7565b5090565b5b808211156103c05760008160009055506001016103a8565b5090565b60006103d76103d2846105e6565b6105c1565b9050828152602081018484840111156103ef57600080fd5b6103fa84828561066f565b509392505050565b60008135905061041181610783565b92915050565b600082601f83011261042857600080fd5b81356104388482602086016103c4565b91505092915050565b6000813590506104508161079a565b92915050565b60006020828403121561046857600080fd5b600061047684828501610402565b91505092915050565b6000806040838503121561049257600080fd5b60006104a085828601610402565b92505060206104b185828601610441565b9150509250929050565b600080604083850312156104ce57600080fd5b600083013567ffffffffffffffff8111156104e857600080fd5b6104f485828601610417565b925050602083013567ffffffffffffffff81111561051157600080fd5b61051d85828601610417565b9150509250929050565b600061053282610617565b61053c8185610622565b935061054c81856020860161067e565b61055581610772565b840191505092915050565b61056981610665565b82525050565b600060408201905081810360008301526105898185610527565b9050818103602083015261059d8184610527565b90509392505050565b60006020820190506105bb6000830184610560565b92915050565b60006105cb6105dc565b90506105d782826106e3565b919050565b6000604051905090565b600067ffffffffffffffff82111561060157610600610743565b5b61060a82610772565b9050602081019050919050565b600081519050919050565b600082825260208201905092915050565b600061063e82610645565b9050919050565b600073ffffffffffffffffffffffffffffffffffffffff82169050919050565b6000819050919050565b82818337600083830152505050565b60005b8381101561069c578082015181840152602081019050610681565b838111156106ab576000848401525b50505050565b600060028204905060018216806106c957607f821691505b602082108114156106dd576106dc610714565b5b50919050565b6106ec82610772565b810181811067ffffffffffffffff8211171561070b5761070a610743565b5b80604052505050565b7f4e487b7100000000000000000000000000000000000000000000000000000000600052602260045260246000fd5b7f4e487b7100000000000000000000000000000000000000000000000000000000600052604160045260246000fd5b6000601f19601f8301169050919050565b61078c81610633565b811461079757600080fd5b50565b6107a381610665565b81146107ae57600080fd5b5056fea26469706673582212207e378631075618fcb7ffc6062e0fd0ef11ca9d6556a098d000d7cf67c3ca0ed964736f6c63430008020033",
  "immutableReferences": {},
  "source": "pragma solidity >=0.4.21 <0.9.0;\n\ncontract Files {\n  struct File {\n    string file_name;\n    string ipfs_cid;\n  }\n\n  mapping(address => File[]) public files;\n\n  function addFile(string memory _file_name, string memory _ipfs_cid) public {\n      File memory newFile = File(\n        _file_name,\n        _ipfs_cid\n      );\n\n      files[msg.sender].push(newFile);\n    }\n\n    function getFilesLength(address fileOwner) public view returns(uint count) {\n        return files[fileOwner].length;\n    }\n}",
  "sourcePath": "/Users/andrazcuderman/Work/personal/distributed-storage/smart_contract/contracts/Files.sol",
  "compiler": {
    "name": "solc",
    "version": "0.8.2+commit.661d1103.Emscripten.clang"
  },
  "schemaVersion": "3.4.14",
  "updatedAt": "2023-05-25T15:18:43.353Z",
  "devdoc": {
    "kind": "dev",
    "methods": {},
    "version": 1
  },
  "userdoc": {
    "kind": "user",
    "methods": {},
    "version": 1
  }
}